{
  "_format": "hh-sol-artifact-1",
  "contractName": "Splitwise",
  "sourceName": "contracts/mycontract.sol",
  "abi": [
    {
      "anonymous": false,
      "inputs": [
        {
          "indexed": true,
          "internalType": "address",
          "name": "debtor",
          "type": "address"
        },
        {
          "indexed": true,
          "internalType": "address",
          "name": "creditor",
          "type": "address"
        },
        {
          "indexed": false,
          "internalType": "uint32",
          "name": "amount",
          "type": "uint32"
        }
      ],
      "name": "IOUAdded",
      "type": "event"
    },
    {
      "inputs": [
        {
          "internalType": "address",
          "name": "creditor",
          "type": "address"
        },
        {
          "internalType": "uint32",
          "name": "amount",
          "type": "uint32"
        }
      ],
      "name": "add_IOU",
      "outputs": [],
      "stateMutability": "nonpayable",
      "type": "function"
    },
    {
      "inputs": [
        {
          "internalType": "address",
          "name": "",
          "type": "address"
        },
        {
          "internalType": "address",
          "name": "",
          "type": "address"
        }
      ],
      "name": "debts",
      "outputs": [
        {
          "internalType": "uint32",
          "name": "",
          "type": "uint32"
        }
      ],
      "stateMutability": "view",
      "type": "function"
    },
    {
      "inputs": [
        {
          "internalType": "address",
          "name": "user",
          "type": "address"
        }
      ],
      "name": "getLastActive",
      "outputs": [
        {
          "internalType": "uint256",
          "name": "",
          "type": "uint256"
        }
      ],
      "stateMutability": "view",
      "type": "function"
    },
    {
      "inputs": [
        {
          "internalType": "address",
          "name": "user",
          "type": "address"
        }
      ],
      "name": "getTotalOwed",
      "outputs": [
        {
          "internalType": "uint32",
          "name": "total",
          "type": "uint32"
        }
      ],
      "stateMutability": "view",
      "type": "function"
    },
    {
      "inputs": [],
      "name": "getUsers",
      "outputs": [
        {
          "internalType": "address[]",
          "name": "",
          "type": "address[]"
        }
      ],
      "stateMutability": "view",
      "type": "function"
    },
    {
      "inputs": [
        {
          "internalType": "address",
          "name": "",
          "type": "address"
        }
      ],
      "name": "isUser",
      "outputs": [
        {
          "internalType": "bool",
          "name": "",
          "type": "bool"
        }
      ],
      "stateMutability": "view",
      "type": "function"
    },
    {
      "inputs": [
        {
          "internalType": "address",
          "name": "",
          "type": "address"
        }
      ],
      "name": "lastActive",
      "outputs": [
        {
          "internalType": "uint256",
          "name": "",
          "type": "uint256"
        }
      ],
      "stateMutability": "view",
      "type": "function"
    },
    {
      "inputs": [
        {
          "internalType": "address",
          "name": "debtor",
          "type": "address"
        },
        {
          "internalType": "address",
          "name": "creditor",
          "type": "address"
        }
      ],
      "name": "lookup",
      "outputs": [
        {
          "internalType": "uint32",
          "name": "",
          "type": "uint32"
        }
      ],
      "stateMutability": "view",
      "type": "function"
    },
    {
      "inputs": [
        {
          "internalType": "uint256",
          "name": "",
          "type": "uint256"
        }
      ],
      "name": "users",
      "outputs": [
        {
          "internalType": "address",
          "name": "",
          "type": "address"
        }
      ],
      "stateMutability": "view",
      "type": "function"
    }
  ],
  "bytecode": "0x608060405234801561001057600080fd5b50610ef6806100206000396000f3fe608060405234801561001057600080fd5b50600436106100925760003560e01c8063606ab75211610066578063606ab75214610145578063713584a61461017557806373851075146101a5578063c2ec28d6146101d5578063d12099e41461020557610092565b8062ce8e3e14610097578063365b98b2146100b55780634209fff1146100e55780634ac1c33d14610115575b600080fd5b61009f610221565b6040516100ac9190610aa6565b60405180910390f35b6100cf60048036038101906100ca9190610b03565b6102af565b6040516100dc9190610b3f565b60405180910390f35b6100ff60048036038101906100fa9190610b86565b6102ee565b60405161010c9190610bce565b60405180910390f35b61012f600480360381019061012a9190610be9565b61030e565b60405161013c9190610c48565b60405180910390f35b61015f600480360381019061015a9190610b86565b610340565b60405161016c9190610c72565b60405180910390f35b61018f600480360381019061018a9190610be9565b610389565b60405161019c9190610c48565b60405180910390f35b6101bf60048036038101906101ba9190610b86565b61041f565b6040516101cc9190610c48565b60405180910390f35b6101ef60048036038101906101ea9190610b86565b610524565b6040516101fc9190610c72565b60405180910390f35b61021f600480360381019061021a9190610cb9565b61053c565b005b606060028054806020026020016040519081016040528092919081815260200182805480156102a557602002820191906000526020600020905b8160009054906101000a900473ffffffffffffffffffffffffffffffffffffffff1673ffffffffffffffffffffffffffffffffffffffff168152602001906001019080831161025b575b5050505050905090565b600281815481106102bf57600080fd5b906000526020600020016000915054906101000a900473ffffffffffffffffffffffffffffffffffffffff1681565b60036020528060005260406000206000915054906101000a900460ff1681565b60006020528160005260406000206020528060005260406000206000915091509054906101000a900463ffffffff1681565b6000600160008373ffffffffffffffffffffffffffffffffffffffff1673ffffffffffffffffffffffffffffffffffffffff168152602001908152602001600020549050919050565b60008060008473ffffffffffffffffffffffffffffffffffffffff1673ffffffffffffffffffffffffffffffffffffffff16815260200190815260200160002060008373ffffffffffffffffffffffffffffffffffffffff1673ffffffffffffffffffffffffffffffffffffffff16815260200190815260200160002060009054906101000a900463ffffffff16905092915050565b600080600090505b60028054905081101561051e576000808473ffffffffffffffffffffffffffffffffffffffff1673ffffffffffffffffffffffffffffffffffffffff16815260200190815260200160002060006002838154811061048857610487610cf9565b5b9060005260206000200160009054906101000a900473ffffffffffffffffffffffffffffffffffffffff1673ffffffffffffffffffffffffffffffffffffffff1673ffffffffffffffffffffffffffffffffffffffff16815260200190815260200160002060009054906101000a900463ffffffff16826105099190610d57565b9150808061051690610d8f565b915050610427565b50919050565b60016020528060005260406000206000915090505481565b60008163ffffffff1611610585576040517f08c379a000000000000000000000000000000000000000000000000000000000815260040161057c90610e34565b60405180910390fd5b8173ffffffffffffffffffffffffffffffffffffffff163373ffffffffffffffffffffffffffffffffffffffff16036105f3576040517f08c379a00000000000000000000000000000000000000000000000000000000081526004016105ea90610ea0565b60405180910390fd5b806000803373ffffffffffffffffffffffffffffffffffffffff1673ffffffffffffffffffffffffffffffffffffffff16815260200190815260200160002060008473ffffffffffffffffffffffffffffffffffffffff1673ffffffffffffffffffffffffffffffffffffffff16815260200190815260200160002060008282829054906101000a900463ffffffff1661068d9190610d57565b92506101000a81548163ffffffff021916908363ffffffff16021790555042600160003373ffffffffffffffffffffffffffffffffffffffff1673ffffffffffffffffffffffffffffffffffffffff1681526020019081526020016000208190555042600160008473ffffffffffffffffffffffffffffffffffffffff1673ffffffffffffffffffffffffffffffffffffffff16815260200190815260200160002081905550600360003373ffffffffffffffffffffffffffffffffffffffff1673ffffffffffffffffffffffffffffffffffffffff16815260200190815260200160002060009054906101000a900460ff16610840576002339080600181540180825580915050600190039060005260206000200160009091909190916101000a81548173ffffffffffffffffffffffffffffffffffffffff021916908373ffffffffffffffffffffffffffffffffffffffff1602179055506001600360003373ffffffffffffffffffffffffffffffffffffffff1673ffffffffffffffffffffffffffffffffffffffff16815260200190815260200160002060006101000a81548160ff0219169083151502179055505b600360008373ffffffffffffffffffffffffffffffffffffffff1673ffffffffffffffffffffffffffffffffffffffff16815260200190815260200160002060009054906101000a900460ff1661094d576002829080600181540180825580915050600190039060005260206000200160009091909190916101000a81548173ffffffffffffffffffffffffffffffffffffffff021916908373ffffffffffffffffffffffffffffffffffffffff1602179055506001600360008473ffffffffffffffffffffffffffffffffffffffff1673ffffffffffffffffffffffffffffffffffffffff16815260200190815260200160002060006101000a81548160ff0219169083151502179055505b8173ffffffffffffffffffffffffffffffffffffffff163373ffffffffffffffffffffffffffffffffffffffff167f440d12aa55d392761d1714333c8792748728af358c02f3ee342424b843a9c0d6836040516109aa9190610c48565b60405180910390a35050565b600081519050919050565b600082825260208201905092915050565b6000819050602082019050919050565b600073ffffffffffffffffffffffffffffffffffffffff82169050919050565b6000610a0d826109e2565b9050919050565b610a1d81610a02565b82525050565b6000610a2f8383610a14565b60208301905092915050565b6000602082019050919050565b6000610a53826109b6565b610a5d81856109c1565b9350610a68836109d2565b8060005b83811015610a99578151610a808882610a23565b9750610a8b83610a3b565b925050600181019050610a6c565b5085935050505092915050565b60006020820190508181036000830152610ac08184610a48565b905092915050565b600080fd5b6000819050919050565b610ae081610acd565b8114610aeb57600080fd5b50565b600081359050610afd81610ad7565b92915050565b600060208284031215610b1957610b18610ac8565b5b6000610b2784828501610aee565b91505092915050565b610b3981610a02565b82525050565b6000602082019050610b546000830184610b30565b92915050565b610b6381610a02565b8114610b6e57600080fd5b50565b600081359050610b8081610b5a565b92915050565b600060208284031215610b9c57610b9b610ac8565b5b6000610baa84828501610b71565b91505092915050565b60008115159050919050565b610bc881610bb3565b82525050565b6000602082019050610be36000830184610bbf565b92915050565b60008060408385031215610c0057610bff610ac8565b5b6000610c0e85828601610b71565b9250506020610c1f85828601610b71565b9150509250929050565b600063ffffffff82169050919050565b610c4281610c29565b82525050565b6000602082019050610c5d6000830184610c39565b92915050565b610c6c81610acd565b82525050565b6000602082019050610c876000830184610c63565b92915050565b610c9681610c29565b8114610ca157600080fd5b50565b600081359050610cb381610c8d565b92915050565b60008060408385031215610cd057610ccf610ac8565b5b6000610cde85828601610b71565b9250506020610cef85828601610ca4565b9150509250929050565b7f4e487b7100000000000000000000000000000000000000000000000000000000600052603260045260246000fd5b7f4e487b7100000000000000000000000000000000000000000000000000000000600052601160045260246000fd5b6000610d6282610c29565b9150610d6d83610c29565b9250828201905063ffffffff811115610d8957610d88610d28565b5b92915050565b6000610d9a82610acd565b91507fffffffffffffffffffffffffffffffffffffffffffffffffffffffffffffffff8203610dcc57610dcb610d28565b5b600182019050919050565b600082825260208201905092915050565b7f416d6f756e74206d75737420626520706f736974697665000000000000000000600082015250565b6000610e1e601783610dd7565b9150610e2982610de8565b602082019050919050565b60006020820190508181036000830152610e4d81610e11565b9050919050565b7f596f752063616e6e6f74206f776520796f757273656c66000000000000000000600082015250565b6000610e8a601783610dd7565b9150610e9582610e54565b602082019050919050565b60006020820190508181036000830152610eb981610e7d565b905091905056fea2646970667358221220325a0e57ed0228170755520eecd6095e7d5941f392d9262afa8080858351e14d64736f6c63430008110033",
  "linkReferences": {},
  "deployedLinkReferences": {}
}